:060000000A128A11FA2F1A
:100EFA00FF3083160313860087010C308312031315
:100F0A0097009501063092005D3083160313920014
:100F1A0008000A128A117D270A128A118312031302
:100F2A000608F300731E9A2F9B2FAF2F7408133EE7
:100F3A00F40075080318013E003EF5000230F20085
:100F4A008630F1009930F000F00BA92FF10BA92F90
:100F5A00F20BA92FF31EB22FB32FD32F0030750235
:100F6A001430031974020318BB2FBC2FBF2FF401CE
:100F7A00F501C72F7408ED3EF40075080318013E09
:100F8A00FF3EF5000230F2008630F1009930F000A1
:100F9A00F00BCD2FF10BCD2FF20BCD2F74080339A7
:100FAA00F00004300310F00DFF3E031DD72F83120B
:100FBA0003131708CF39700797007508F1007408F2
:100FCA00F0000310F10CF00C0310F10CF00C700897
:100FDA009500C330F100CD30F000F00BF22FF10B89
:100FEA00F22F932F0A128A110028F401F5018301C6
:060FFA000A128A118E2F7D
:08400000FF3FFF3FFF3FFF3FC0
:02400E003B3F36
:00000001FF
